:100000000C9446000C9484000C9484000C9484009E
:100010000C9484000C9484000C9484000C94840050
:100020000C9484000C9484000C9484000C94840040
:100030000C9484000C9484000C9484000C94840030
:100040000C9484000C9484000C9484000C94840020
:100050000C9484000C9484000C9484000C94840010
:100060000C9484000C9484000C9484000C94840000
:100070000C9484000C9484000C9484000C948400F0
:100080000C9484000C9484000C94840011241FBEF2
:10009000CFEFD0E1DEBFCDBF11E0A0E0B1E0EEE9EF
:1000A000F2E000E00BBF02C007900D92A430B10750
:1000B000D9F70E945D000C944D0111248FEF90E15F
:1000C0009EBF8DBFBF9AC79A0E94E3007F706C5994
:1000D0007F4F80E090E0EDE4F1E03197F1F7019699
:1000E00086179707C4F3C7980E94E3007F706C5986
:1000F0007F4F80E090E0EDE4F1E03197F1F7019679
:1001000086179707C4F3DFCF0C940000AF92BF921D
:10011000CF92DF92EF92FF920F931F93CF93DF93D3
:10012000EC01E880F9800A811B81E114F1040105EA
:10013000110541F484E2E82E89EDF82E8BE5082FB5
:1001400087E0182FC801B7012DE133EF41E050E0FF
:100150000E94100127EA31E440E050E00E94F100E3
:100160005B016C01C801B7012DE133EF41E050E0C4
:100170000E941001CA01B9012CEE34EF4FEF5FEF7E
:100180000E94F1009B01AC012A0D3B1D4C1D5D1D21
:1001900057FF04C0215030404040504828833983E5
:1001A0004A835B835F77B901CA01DF91CF911F91C9
:1001B0000F91FF90EF90DF90CF90BF90AF90089598
:1001C0000E948600089580E091E00E9486000895D4
:1001D00060930001709301018093020190930301E9
:1001E0000895629FD001739FF001829FE00DF11D81
:1001F000649FE00DF11D929FF00D839FF00D749FA1
:10020000F00D659FF00D9927729FB00DE11DF91F4C
:10021000639FB00DE11DF91FBD01CF0111240895A9
:1002200097FB092E05260ED057FD04D014D00AD016
:10023000001C38F450954095309521953F4F4F4F15
:100240005F4F0895F6F790958095709561957F4F73
:100250008F4F9F4F0895A1E21A2EAA1BBB1BFD01D1
:100260000DC0AA1FBB1FEE1FFF1FA217B307E40795
:10027000F50720F0A21BB30BE40BF50B661F771FED
:10028000881F991F1A9469F76095709580959095CD
:0E0290009B01AC01BD01CF010895F894FFCF92
:04029E00010000005B
:00000001FF
