:100000000C9446000C946B000C946B000C946B00E9
:100010000C946B000C946B000C946B000C946B00B4
:100020000C946B000C946B000C946B000C946B00A4
:100030000C946B000C946B000C946B000C946B0094
:100040000C946B000C946B000C946B000C946B0084
:100050000C946B000C946B000C946B000C946B0074
:100060000C946B000C946B000C946B000C946B0064
:100070000C946B000C946B000C946B000C946B0054
:100080000C946B000C946B000C946B0011241FBE3D
:10009000CFEFD0E1DEBFCDBF0E9450000C946D00C9
:1000A00011248FEF90E19EBF8DBFBF9AC79A8FE357
:1000B00092E4AFE081509040A040E1F700C0000022
:1000C000C7988FE392E4AFE081509040A040E1F701
:0E00D00000C00000EBCF0C940000F894FFCFAE
:00000001FF
